:100000000C9411040C9439040C9439040C943904A4
:100010000C9439040C9439040C9439040C9439046C
:100020000C9439040C9439040C9439040C9439045C
:100030000C9439040C9439040C9439040C9439044C
:100040000C94480D0C9439040C9439040C94390424
:100050000C9439040C9439040C9439040C9439042C
:100060000C94920D0C943904000000003EE28BA128
:1000700085D1477C000000000000000FF98189DB7A
:1000800081919FF0000000000000007C46D3818930
:10009000E32A223E0000000000000000FC87B1853A
:1000A000C157447C00000000060600010602000063
:1000B0000000000000000000000000000000000040
:1000C0000000000000000000000109030000000023
:1000D000000000000000000000000006060001060D
:1000E0000200000106050000000000000000000002
:1000F00000000000000000000000000001090301F2
:1001000008050000000000000000000000000606D6
:1001100000010602000001060500000109050000BB
:1001200000000000000000000000000000000001CE
:10013000090301080501060400000000000000009A
:100140000009050101050300000000000000000097
:10015000000000000000000000000000000000009F
:100160000000010604000000000000000000000084
:10017000000000000905010105030000010605005B
:10018000000000000000000000000000000000006F
:100190000000000000010604010605000000000048
:1001A0000000000000000009050101050300000136
:1001B0000605000001080500000000000000000026
:1001C0000000000000000000010604010605010512
:1001D0000300000000000000000008030201050306
:1001E0000000010605000000000000000000000003
:1001F00000000000000000000000000107060107E9
:1002000004000000000000000000000000080302DD
:1002100001050300000106050000010702000000BF
:1002200000000000000000000000000000000107C6
:1002300006010704010505000000000000000000A1
:10024000090303010803000001060200000000008A
:10025000000000000000000000000000000000009E
:100260000001090501070500000000000000000072
:10027000000000090303010803000001060200005A
:10028000010905000000000000000000000000005F
:100290000000000001070301070501080500000038
:1002A00000000000000000000000003E5B4F5B3ECD
:1002B0003E6B4F6B3E1C3E7C3E1C183C7E3C181C2B
:1002C000577D571C1C5E7F5E1C00183C1800FFE722
:1002D000C3E7FF0018241800FFE7DBE7FF30483AC8
:1002E000060E2629792926407F050507407F05252A
:1002F0003F5A3CE73C5A7F3E1C1C08081C1C3E7FB2
:1003000014227F22145F5F005F5F06097F017F0078
:100310006689956A606060606094A2FFA294080498
:100320007E040810207E201008082A1C08081C2AB9
:1003300008081E101010100C1E0C1E0C30383E3811
:1003400030060E3E0E06000000000000005F0000B8
:100350000007000700147F147F14242A7F2A122329
:100360001308646236495620500008070300001C39
:100370002241000041221C002A1C7F1C2A08083E42
:100380000808008070300008080808080000606055
:100390000020100804023E5149453E00427F4000C3
:1003A00072494949462141494D331814127F10279B
:1003B000454545393C4A49493141211109073649EA
:1003C000494936464949291E0000140000004034BE
:1003D00000000008142241141414141400412214C3
:1003E0000802015909063E415D594E7C1211127CEA
:1003F0007F494949363E414141227F4141413E7F4B
:10040000494949417F090909013E414151737F082A
:1004100008087F00417F41002040413F017F0814D0
:1004200022417F404040407F021C027F7F04081031
:100430007F3E4141413E7F090909063E4151215E0F
:100440007F09192946264949493203017F01033FA3
:100450004040403F1F2040201F3F4038403F631432
:1004600008146303047804036159494D43007F4134
:1004700041410204081020004141417F0402010271
:100480000440404040400003070800205454784096
:100490007F284444383844444428384444287F382A
:1004A0005454541800087E090218A4A49C787F08AC
:1004B00004047800447D40002040403D007F102827
:1004C000440000417F40007C047804787C080404E8
:1004D000783844444438FC1824241818242418FC80
:1004E0007C08040408485454542404043F44243C25
:1004F0004040207C1C2040201C3C4030403C442894
:100500001028444C9090907C4464544C440008362D
:10051000410000007700000041360800020102049B
:10052000023C2623263C1EA1A161123A4040207ABB
:100530003854545559215555794122545478422103
:100540005554784020545579400C1E52721239553A
:100550005555593954545459395554545800004537
:100560007C410002457D420001457C407D12111214
:100570007DF0282528F07C545545002054547C54A7
:100580007C0A097F4932494949323A4444443A3263
:100590004A4848303A4141217A3A42402078009D09
:1005A000A0A07D3D4242423D3D4040403D3C24FFB5
:1005B0002424487E4943662B2FFC2F2BFF0929F664
:1005C00020C0887E090320545479410000447D41B5
:1005D0003048484A32384040227A007A0A0A727D0E
:1005E0000D19317D2629292F282629292926304829
:1005F0004D4020380808080808080808382F10C897
:10060000ACBA2F102834FA00007B000008142A141A
:100610002222142A14085500550055AA55AA55AA95
:10062000FF55FF55FF000000FF00101010FF0014E1
:100630001414FF001010FF00FF1010F010F014143D
:1006400014FC001414F700FF0000FF00FF1414F462
:1006500004FC141417101F10101F101F1414141F63
:1006600000101010F0000000001F101010101F10DC
:10067000101010F010000000FF10101010101010DB
:100680001010FF10000000FF140000FF00FF00002A
:100690001F10170000FC04F414141710171414F49E
:1006A00004F40000FF00F714141414141414F700D9
:1006B000F7141414171410101F101F141414F4142A
:1006C0001010F010F000001F101F0000001F140099
:1006D0000000FC140000F010F01010FF10FF1414C4
:1006E00014FF141010101F00000000F010FFFFFF97
:1006F000FFFFF0F0F0F0F0FFFFFF0000000000FF50
:10070000FF0F0F0F0F0F3844443844FC4A4A4A3455
:100710007E02020606027E027E026355494163386C
:1007200044443C04407E201E2006027E020299A51D
:10073000E7A5991C2A492A1C4C7201724C304A4D7B
:100740004D303048784830BC625A463D3E494949B0
:10075000007E0101017E2A2A2A2A2A44445F444459
:1007600040514A444040444A51400000FF0103E0E8
:1007700080FF000008086B6B083612362436060F1F
:10078000090F06000018180000001010003040FF8C
:100790000101001F01011E00191D1712003C3C3C05
:1007A0003C000000000000000000240027002A0098
:1007B00000000000250028002B00FF20FF04FF2080
:1007C000FF04005A004242005A00FF81A59999A5F2
:1007D00081FF7E81A5815AFFBD2400000000230017
:1007E0002600290004040404040404040202020292
:1007F00002020303030303030102040810204080E4
:100800000102040810200102040810200000000862
:1008100000020100000304070000000000000000C7
:10082000DE1611241FBECFEFD8E0DEBFCDBF15E02E
:10083000A0E0B1E0E8E9F3E302C005900D92A23731
:10084000B107D9F726E0A2E7B5E001C01D92AB38A9
:10085000B207E1F714E0C1E1D4E004C02197FE0142
:100860000E944317C031D107C9F70E94B0120C94FF
:10087000CA190C9400003FB7F8948091BE0590917E
:10088000BF05A091C005B091C10526B5A89B05C0C4
:100890002F3F19F00196A11DB11D3FBFBA2FA92FFF
:1008A000982F8827820F911DA11DB11DBC01CD017C
:1008B00042E0660F771F881F991F4A95D1F7089568
:1008C0000F931F93CF93DF93DC0155968C9155972F
:1008D000823071F0833009F1813009F08CC01496B8
:1008E000ED91FC911597E41BF50BE21BF30B20C077
:1008F0001496ED91FC911597CF01861B970BBC01C7
:10090000615071091696ED91FC911797CF01841BE8
:10091000950BAC01421B530B6EC01696ED91FC91EA
:100920001797CF01861B970BBC0161507109FA0123
:1009300077FD1BC116968D919C91179768177907C3
:100940000CF013C1F7FF04C02E0F3F1FE0E0F0E0F2
:1009500014968D919C911597AF01420F531F8417E8
:1009600095071CF49C012E1B3F0B121613060CF06E
:10097000FCC0CB0177FD079643E0959587954A9596
:10098000E1F79695982F882797958795E80FF91F97
:10099000EC5EFE4F6770772781E090E001C0880F22
:1009A0006A95EAF7482F0130110541F088F00230CE
:1009B000110509F0DAC02E0F3F1F15C02E0F3F1F83
:1009C000E217F30709F4D1C08081842B8193F8CF1B
:1009D00080952E0F3F1FE217F30709F4C6C09081E0
:1009E00098239193F8CFE217F30709F4BEC08081F2
:1009F00084278193F8CF77FDB8C014968D919C9190
:100A00001597681779070CF0B0C057FF04C0240F82
:100A1000351F40E050E016968D919C911797FA0192
:100A2000E20FF31F8E179F071CF49C01241B350B4C
:100A3000121613060CF099C0A22F842F8695869566
:100A4000869590E8899F600D711D1124FB01EC5E75
:100A5000FE4F4770A9F198E0941B492F50E0EA013E
:100A6000CE5DDA4F8881291790F4421B51092FEF90
:100A700030E002C0359527954A95E2F78223013090
:100A8000110541F068F00230110589F06EC00130A7
:100A9000110519F42081822B0CC00130110520F4BE
:100AA00080952081822305C00230110531F4208118
:100AB00082278083A91708F458C0A91BE058FF4F6C
:100AC000A83048F10230110559F4EF018A2F9881BE
:100AD00090959883C058DF4F88508830C0F730C059
:100AE00081E00130110509F080E08195EF019A2F36
:100AF0008883C058DF4F98509830D0F788EF8A0F1E
:100B000086958695869590E8899FE00DF11D1124C4
:100B1000E058FF4FA770AA2341F1B0E0A65EBA4F9C
:100B20008C910130110529F038F002301105D1F017
:100B30001CC09081892B18C080959081892314C096
:100B400088EF8A0F86958695869590E8899FE00DB7
:100B5000F11D1124E058FF4FA77039F0B0E0A65EF8
:100B6000BA4F8C91908189278083DF91CF911F911B
:100B70000F9108950F931F93CF93DF93DC01FB0137
:100B800055968C915597823081F0833019F18130E0
:100B900051F514968D919C911597BC01641B750BB2
:100BA000AB0141505109BF0181C014966D917C91F8
:100BB0001597CB018E1B9F0BFC0116968D919C9176
:100BC0001797BC01641B750BAB0141505109E21B27
:100BD000F30B09C016966D917C9117976E1B7F0BD6
:100BE000621B730B63C057FD1CC116968D919C91BF
:100BF0001797481759070CF014C1F7FF04C02E0FC0
:100C00003F1FE0E0F0E014968D919C911597BF0195
:100C1000620F731F861797071CF49C012E1B3F0B56
:100C2000121613060CF0FDC0CA0157FD079663E0CB
:100C3000959587956A95E1F79695982F88279795CA
:100C40008795E80FF91FEC5EFE4F4770552781E04E
:100C500090E001C0880F4A95EAF7482F013011054E
:100C600041F088F00230110509F0DBC02E0F3F1F64
:100C700015C02E0F3F1FE217F30709F4D2C0808181
:100C8000842B8193F8CF80952E0F3F1FE217F30737
:100C900009F4C7C0908198239193F8CFE217F30726
:100CA00009F4BFC0808184278193F8CF57FDB9C074
:100CB00014968D919C911597481759070CF0B1C067
:100CC00077FF04C0260F371F60E070E016968D9105
:100CD0009C911797FB01E20FF31F8E179F071CF4DF
:100CE0009C01261B370B121613060CF09AC0A22F7C
:100CF000862F86958695869590E8899F400D511D93
:100D00001124FA01EC5EFE4F6770A9F198E0961B82
:100D1000492F50E0EA01CE5DDA4F8881291790F41F
:100D2000421B51092FEF30E002C0359527954A95B7
:100D3000E2F782230130110541F068F0023011051D
:100D400089F06FC00130110519F42081822B0CC08D
:100D50000130110520F480952081822305C00230E6
:100D6000110531F4208182278083A91708F459C026
:100D7000A91BE058FF4FA83048F10230110559F483
:100D8000EF018A2F988190959883C058DF4F885043
:100D90008830C0F731C081E00130110509F080E0F2
:100DA0008195EF019A2F8883C058DF4F9850983073
:100DB000D0F788EF8A0F86958695869560E8869F9E
:100DC000E00DF11D1124E058FF4FA770AA2349F14F
:100DD000B0E0A65EBA4F8C910130110529F038F0D1
:100DE00002301105D9F01DC09081892B03C0809578
:100DF00090818923808315C088EF8A0F8695869518
:100E0000869570E8879FE00DF11D1124E058FF4F93
:100E1000A77039F0B0E0A65EBA4F8C919081892717
:100E2000E9CFDF91CF911F910F910895FC0177FDDC
:100E30009AC080859185681779070CF094C057FD9A
:100E400092C082859385481759070CF08CC085891C
:100E5000823009F07CC084819581DC01A61BB70B30
:100E6000BD016150710986819781FC01E41BF50B7E
:100E7000AF01415051090AC0813041F4848195810C
:100E8000841B950BAB01BC01615071092130310508
:100E900029F008F122303105E1F10895FA0157FDFA
:100EA0003796A3E0F595E795AA95E1F7F695FE2F1D
:100EB000EE27F795E7956E0F7F1FFB01EC5EFE4F67
:100EC0004770552781E090E001C0880F4A95EAF706
:100ED0009081892B3AC0FA0157FD379623E0F595AA
:100EE000E7952A95E1F7F695FE2FEE27F795E7951A
:100EF0006E0F7F1FFB01EC5EFE4F4770552781E0B0
:100F000090E001C0880F4A95EAF780959081892387
:100F10001CC0FA0157FD379683E0F595E7958A9551
:100F2000E1F7F695FE2FEE27F795E7956E0F7F1FF9
:100F3000FB01EC5EFE4F4770552781E090E001C059
:100F4000880F4A95EAF79081892780830895833036
:100F500009F092CF86819781861B970BBA01AC016D
:100F60004150510993CF089508952F923F924F9287
:100F70005F926F927F928F929F92AF92BF92CF9229
:100F8000DF92EF92FF920F931F93CF93DF93CDB732
:100F9000DEB76B970FB6F894DEBF0FBECDBF4C0126
:100FA0005A8349831F830E83FD82EC82CB82DC014E
:100FB00058964D915C9159974115510509F0A5C07E
:100FC00018968D919C911997681779070CF05AC162
:100FD0001A968D919C911B97E981FA81E817F90780
:100FE0000CF050C1D12CCB013B81F6E03F9F800D2E
:100FF000911D1124181619060CF044C1C60133E0E6
:10100000880F991F3A95E1F749815A81840F951FFE
:10101000181619060CF036C157968C91811103C031
:10102000203B08F02F5F55E0259F900111247E871B
:101030006D875B01212CC901861B970B99878887D7
:10104000A981BA811896BB87AA87B5E02B1641F013
:10105000E885F985EA0DFB1DEA55FD4F349001C086
:10106000312C69807A80230130FE12C0D401ED91C9
:10107000FC91BB81B13031F40480F581E02D2E81EB
:101080003F8118C00684F785E02DEE80FF801CC0EC
:10109000EC81FD812E813F81E217F307E1F0D4015D
:1010A000ED91FC91BB81B13051F40480F581E02DCC
:1010B0002C813D81A301B501C40109950CC00684B2
:1010C000F785E02DEC80FD8086019601A2016D85FB
:1010D0007E85C40109953694EFEF6E1A7E0A4C0C9A
:1010E0005D1C2A853B856216730609F0BDCF2394EB
:1010F0003FEFA31AB30A4D855E854C0D5D1D5E87DB
:101100004D8756E02512A1CFBDC0FA013496349127
:10111000329785919491231BA7E02A9F800D911D02
:101120001124FA01259134913A8B298BFC012590E9
:101130003490FC01329634913887319644914C8733
:101140003196E491FC013596A491319684915B81AE
:10115000523050F06A2E0A2E000C7708E82F082E25
:10116000000CFF0BFB87EA87FB81CF2ED12C6C9CF8
:1011700090016D9C300D7C9C300D1124A901460F0F
:10118000571F588B4F871C82A12CEA2FAA0FFF0BE9
:101190003B016E0E7F1E5885650F711DDB01AE0F82
:1011A000BF1FBF8BAE8BE981FA81E80FF11D87FD70
:1011B000FA95F98FE88F9C85A91608F063C08A2DEF
:1011C00090E04A855B85480F591F4C9D90014D9DCD
:1011D000300D5C9D300D1124A981BA81A20FB31F7F
:1011E000BE87AD877B8E6A8E4F845888BC81B619C6
:1011F000BB8BE88DF98DE80FF91FFD8BEC8B8B898C
:10120000FA8D8F0F2A8D3B8D4E895F892417350704
:1012100099F1877041F4C1010196E989FA89E20DDB
:10122000F31DB4901C01B7FE1EC0D401ED91FC91DA
:10123000BB81B13061F40480F581E02D2E813F81C6
:101240004C895D896A8D7B8DC40109950CC006842B
:10125000F785E02DEE80FF80860196014D855E8545
:10126000B201C4010995BB0CEA8DFB8D3196FB8F51
:10127000EA8F4C0C5D1CC3CF5C818885580F5C8362
:10128000A39499CF6B960FB6F894DEBF0FBECDBF77
:10129000DF91CF911F910F91FF90EF90DF90CF9052
:1012A000BF90AF909F908F907F906F905F904F9086
:1012B0003F902F900895AF92BF92CF92EF92FF92FE
:1012C0000F931F93CF93DF93EC01262F888D998D79
:1012D000009709F042C06A3069F42C898E859F8599
:1012E00038E0239F800D911D11249F878E871D86D6
:1012F0001C86ACC06D3009F4A9C08E898823C1F06A
:101300003C898C859D8546E0349F800D911D11247C
:1013100048855985841795075CF01D861C868E8547
:101320009F85E8E03E9F800D911D11249F878E8749
:10133000EA88FB88088919894E855F856C857D85DB
:10134000CC88CE010E94B5072C898C859D85F6E05E
:101350002F9F800D911D112441C06A3079F41D86A4
:101360001C862C89FC013696E4918E859F852E9FE4
:10137000800D911D11249F878E8768C06D3009F400
:1013800065C0AC014C5F5F4FFA013491631708F4FC
:101390005DC03196E491E61708F458C0FA01449113
:1013A000362F341BFC013296A590B490F7E03F9F96
:1013B000A00CB11C1124F501329634913196E491C0
:1013C000332311F0E1110DC0F5013496E4912C891D
:1013D0008C859D85E29F800D911D11249D878C87B2
:1013E00035C0F501359644915E89552311F16C891C
:1013F000E32FF0E0E40FF11D47FDFA956E9FD00159
:101400006F9FB00D11244C855D854A0F5B1FE885E9
:10141000F9854E175F076CF01D861C86FC01369619
:10142000E4918E859F856E9F800D911D11249F876D
:101430008E87EA88FB88088919894E855F856C85C7
:101440007D85CC88CE010E94B507BECF81E090E0BB
:10145000DF91CF911F910F91FF90EF90CF90BF90B0
:10146000AF900895EF92FF920F931F93DC01ED91DF
:10147000FC9111971A960D911C911B9718962D911E
:101480003C9119970684F785E02D7B0140E050E000
:1014900060E070E009951F910F91FF90EF90089523
:1014A0006F927F928F929F92AF92BF92CF92DF9274
:1014B000EF92FF920F931F93CF93DF936C015A012A
:1014C0004801EB013B01620E731EC615D70574F48B
:1014D000D601ED91FC910084F185E02D8701940106
:1014E000A501BE01C60109952196EFCFDF91CF91ED
:1014F0001F910F91FF90EF90DF90CF90BF90AF9032
:101500009F908F907F906F900895EF92FF920F932E
:101510001F93DC01ED91FC91260F371F21503109FB
:101520000680F781E02D78018A0109951F910F91BE
:10153000FF90EF900895EF92FF920F931F93780121
:10154000DC01ED91FC91240F351F89010150110937
:101550000680F781E02D9B0109951F910F91FF9067
:10156000EF9008956F927F928F929F92AF92BF9269
:10157000CF92DF92EF92FF920F931F93CF93DF935F
:10158000EC014B015A0169013801E881F9810284BB
:10159000F385E02D87010995E881F981A501460DC4
:1015A000571D415051090284F385E02D9601B40185
:1015B000CE010995E881F9810084F185E02D930140
:1015C000A501B401CE010995E881F981C80CD91CA7
:1015D000B601615071090084F185E02D9301A501E8
:1015E000CE010995DF91CF911F910F91FF90EF9060
:1015F000DF90CF90BF90AF909F908F907F906F9033
:1016000008952F923F924F925F926F927F928F92A6
:101610009F92AF92BF92CF92DF92EF92FF920F9381
:101620001F93CF93DF9300D01F92CDB7DEB74C014D
:101630007B836A836A01590117019801241B350BCA
:1016400037FF03C0319521953109C5014A815B817E
:10165000841B950B97FF03C091958195910951E0EB
:1016600059838217930714F019820BC09A2D8B2D82
:101670005801092F182F9A818B81DB82CA82C92ECB
:10168000D82E8A819B81A816B9065CF49C2D8D2DDD
:101690006801092F182F9A818B81BB82AA82A92EFB
:1016A000B82E2501AA81BB814A1A5B0A38016C1841
:1016B0007D0877FE03C0719461947108720157FE32
:1016C00003C0BFEFEB1AFB0AF594E794C016D106EE
:1016D0001CF00FEF1FEF1FC001E010E01CC0D40191
:1016E000ED91FC91B9810480F581E02D9101BB233E
:1016F000C1F04A815B81B601C4010995E618F7087B
:10170000F7FE04C0C00ED11EE40CF51CEA81FB817B
:101710003196FB83EA834A815B81A416B506FCF609
:1017200004C0A6016A817B81E7CF0F900F900F90D4
:10173000DF91CF911F910F91FF90EF90DF90CF90AD
:10174000BF90AF909F908F907F906F905F904F90E1
:101750003F902F90089585ED8093BC008091BC0050
:1017600084FDFCCF10922806089540919405262F01
:1017700030E0240F311D21323105DCF420912806A0
:101780002430C9F4FC0180E090E0861758F43091D1
:1017900094052191DC01AE58BA4FA30FB11D2C93D3
:1017A0000196F3CF80919405680F6093940580E0D3
:1017B000089581E0089582E00895089581E090E021
:1017C0003091C3052091C205321710F480E090E0FB
:1017D00091958195910908958091C3059091C205D5
:1017E000891730F48F5F8093C30580E090E00895FF
:1017F0008FEF9FEF08958091C20590E02091C3057F
:10180000821B91090895CF92DF92EF92FF920F937E
:101810001F93CF93DF937C01262F972F8A0180910E
:101820002906882391F0C62FD72F6E01C40ED51E2E
:10183000CC15DD0571F06991D701ED91FC91019016
:10184000F081E02DC7010995F3CF642F822F0E940C
:10185000B50BC801DF91CF911F910F91FF90EF90D1
:10186000DF90CF900895CF93DF931F92CDB7DEB76F
:101870006983209129062223D1F020914B06203242
:1018800040F021E030E0FC013383228380E090E0EF
:1018900015C080912A06E82FF0E0E55DF94F9981A7
:1018A00090838F5F80932A0680934B0605C061E08A
:1018B000CE0101960E94B50B81E090E00F90DF9180
:1018C000CF910895833081F028F4813099F08230EF
:1018D000A1F008958730A9F08830B9F08430D1F4B0
:1018E000809180008F7D03C0809180008F778093EE
:1018F0008000089584B58F7702C084B58F7D84BD44
:1019000008958091B0008F7703C08091B0008F7DE3
:101910008093B00008951F93CF93DF93282F30E07A
:10192000F901E45FF74F8491F901E850F84FD49141
:10193000F901EC51F84FC491CC23C9F0162F811155
:101940000E94620CEC2FF0E0EE0FFF1FE055F84F05
:10195000A591B4918FB7F894111105C09C91ED2F0A
:10196000E095E92302C0EC91ED2BEC938FBFDF9162
:10197000CF911F910895CF93DF9390E0FC01E85041
:10198000F84F2491FC01EC51F84F8491882361F1C8
:1019900090E0880F991FFC01EA55F84FC591D4914A
:1019A000FC01E055F84FA591B491611109C09FB7B2
:1019B000F8948881209582238883EC912E230BC094
:1019C000623061F49FB7F8943881822F8095832329
:1019D0008883EC912E2B2C939FBF06C08FB7F89471
:1019E000E8812E2B28838FBFDF91CF9108958E3011
:1019F00008F08E508770806480937C0080917A001C
:101A0000806480937A0080917A0086FDFCCF80917B
:101A100078002091790090E0922B08958F929F9208
:101A2000AF92BF92CF92DF92EF92FF926B017C0157
:101A30000E943B044B015C01C114D104E104F10498
:101A4000F1F00E943B04DC01CB0188199909AA0935
:101A5000BB09883E9340A105B10570F321E0C21A8D
:101A6000D108E108F10888EE880E83E0981EA11CD9
:101A7000B11CC114D104E104F10419F7DDCFFF90CA
:101A8000EF90DF90CF90BF90AF909F908F90089590
:101A90001F920F920FB60F9211242F933F938F93A3
:101AA0009F93AF93BF938091BA059091BB05A0918E
:101AB000BC05B091BD053091B90523E0230F2D374A
:101AC00020F40196A11DB11D05C026E8230F029642
:101AD000A11DB11D2093B9058093BA059093BB0554
:101AE000A093BC05B093BD058091BE059091BF0544
:101AF000A091C005B091C1050196A11DB11D8093B3
:101B0000BE059093BF05A093C005B093C105BF91DA
:101B1000AF919F918F913F912F910F900FBE0F909A
:101B20001F9018951F920F920FB60F9211242F93AA
:101B30003F934F935F936F937F938F939F93AF9355
:101B4000BF93EF93FF938091B900887F803609F4AB
:101B50009CC068F5883209F45BC090F4803109F4C8
:101B600054C038F4882309F4F6C0883009F44DC015
:101B7000F6C0883109F44CC0803209F45DC0EFC072
:101B8000803409F468C048F4803309F455C08833C0
:101B900009F0E5C080932606D8C0803509F44FC00F
:101BA000883509F45DC0883409F0D9C0D6C08839B9
:101BB00009F4C7C0A8F4883709F467C038F4883638
:101BC00009F463C0803709F460C0C9C0883809F4DB
:101BD000B8C0803909F45FC0803809F0C0C05BC06C
:101BE000803B09F486C038F4803A09F466C0883A2C
:101BF00009F47FC0B4C0803C09F4A7C0883C09F454
:101C0000A4C0883B09F48AC0AAC08091030610C012
:101C10009091250680912406981770F5E09125068D
:101C200081E08E0F80932506F0E0EC5FF94F808114
:101C30008093BB0085EC86C0809326068EC0E09121
:101C4000250681E08E0F809325068091BB00F0E091
:101C5000EC5FF94F808390912506809124066EC039
:101C6000E091250681E08E0F809325068091BB00D0
:101C7000F0E0EC5FF94F80838091270681116DC001
:101C800081E08093020684EA61C083E080932806A5
:101C90001092B805CFCF8091B805803208F051C0BE
:101CA000E091B80581E08E0F8093B8058091BB006C
:101CB000F0E0E856FA4F8083BDCF85EC8093BC00FE
:101CC000109228068091B805803230F4E091B80572
:101CD000F0E0E856FA4F10826091B80570E0E091AC
:101CE0009605F091970588E995E009951092B80559
:101CF00036C084E0809328061092950510929405D2
:101D0000E0919205F09193050995809194058111D8
:101D100005C081E08093940510927205E0919505CD
:101D200081E08E0F80939505F0E0EE58FA4F8081A8
:101D30008093BB009091950580919405981708F4C5
:101D400079CF85E88093BC000AC085EC8093BC0005
:101D50001092280604C0109226060E94AB0BFF9139
:101D6000EF91BF91AF919F918F917F916F915F9113
:101D70004F913F912F910F900FBE0F901F9018958C
:101D800040E050E020E030E026303105B9F0FA01C3
:101D9000EA52FA4F9081992361F09181981309C01A
:101DA0009281961306C03093F5052093F405822F97
:101DB00008952F5F3F4F4B5F5F4FE6CF3093F505A0
:101DC0002093F4058FEF0895EF92FF920F931F93E6
:101DD000CF93DF9300D000D000D0CDB7DEB7EE2494
:101DE000E394F12C00E210E020E830E040E150E024
:101DF00060E070E088E596E00E94500AE8E5F6E0D1
:101E000082E0848B138A128A118A108A87E090E01C
:101E10009587848789E190E09787868762E575E0FA
:101E2000CE0101960E94B210CE0101960E942512A9
:101E300089819A810E94DE170E94A31168EE73E0E7
:101E400080E090E00E940E0D26960FB6F894DEBF5B
:101E50000FBECDBFDF91CF911F910F91FF90EF90FB
:101E60000895AF92BF92CF92DF92EF92FF920F93BD
:101E70001F93CF93DF93CDB7DEB7EF970FB6F894EC
:101E8000DEBF0FBECDBF20E034E0E4E1F1E0DF01D2
:101E9000A9011D9241505040E1F792E090936C06E9
:101EA00021E030E030936B0620936A063093690698
:101EB000209368062AE130E030936506209364069B
:101EC0003093670620936606C82ED12C1DAA1CAA43
:101ED0001FAA1EAA19AE18AE4AE08E010F5F1F4F4F
:101EE000B801C60101960E945E19F8010190002018
:101EF000E9F73197AF01401B510BB801CE01C496F1
:101F00000E9491106DE575E0C8010E94B21088AD85
:101F100099ADACA8BDA8ED80FE80A114B10409F470
:101F200096C00097A1F0E80EF91EB701C8010E9403
:101F30005810882309F48BC029813A818D819E81B4
:101F4000B501820F931F0E944E19FE82ED821BAED7
:101F50001AAE1DAE1CAE1FAE1EAE69817A81611530
:101F6000710531F04D815E81CE01CA960E949110BB
:101F7000CE01CA960E9425128AAD9BAD0E94DE1743
:101F800089819A810E94DE178CA99DA90E94DE1783
:101F90000E94A31183E38C9DB0018D9D700D1124CF
:101FA00068557F4F43E350E0C8010E9455196B818B
:101FB00050E1659FB001112468597F4F40E150E026
:101FC00080E091E00E9455198981A8E08A9FC001B4
:101FD000112490931301809312018A81B8E08B9FA2
:101FE000C001112490931101809310011092F70504
:101FF0001092F6051092F9051092F8058EE1FE0197
:102000003496A6EDB5E001900D928A95E1F782E154
:10201000FE01B296A4ECB5E001900D928A95E1F72D
:1020200068EE73E080E090E00E940E0DEF960FB630
:10203000F894DEBF0FBECDBFDF91CF911F910F91FE
:10204000FF90EF90DF90CF90BF90AF900895C801C0
:102050000E947F107CCFCF92DF92EF92FF920F937E
:102060001F93CF93DF936C017A018B01C0E0D0E026
:10207000CE15DF0589F0D8016D918D01D601ED9166
:10208000FC910190F081E02DC6010995892B11F496
:102090007E0102C02196ECCFC701DF91CF911F9145
:1020A0000F91FF90EF90DF90CF9008950E9440191C
:1020B0000F931F93CF93DF93EC0188819981009751
:1020C00029F02A813B812617370788F48B016F5F3F
:1020D0007F4F0E947618009761F0998388831B8355
:1020E0000A832C813D81232B11F4FC01108281E0B5
:1020F00001C080E0DF91CF911F910F910895CF93A0
:10210000DF93EC0188819981009711F00E94DE171E
:10211000198218821D821C821B821A82DF91CF9144
:102120000895EF92FF920F931F93CF93DF93EC01EB
:102130007B018A01BA010E945810811104C0CE01AE
:102140000E947F1007C01D830C83B701888199818D
:102150000E944E19CE01DF91CF911F910F91FF90F8
:10216000EF900895FC011182108213821282158271
:1021700014826115710551F0FB0101900020E9F70F
:102180003197AF01461B570B0C9491100895209185
:102190004B0690918606213208F04AC080912806AD
:1021A0008111FCCF32E03093280631E030932706CE
:1021B0003FEF309326061092250620932406ABE2CB
:1021C000B6E044E056E0FA013E2F341B321718F413
:1021D0003D913193F9CF1092030620910306990F98
:1021E000922B9093030690910206913061F4109225
:1021F0000206909103069093BB009091BC0093FD62
:10220000F8CF95EC01C095EE9093BC009091280614
:102210009230E1F3909126069F3F79F08091260657
:10222000803241F080912606803331F084E005C091
:1022300081E003C082E001C083E010922A06109280
:102240004B0610922906089590917906992339F04A
:102250008EBD00000DB407FEFDCF8EB5089528E0B9
:1022600030E040E8E0917C06F0917D06508190914D
:102270008306909595239083E0917A06F0917B06F2
:1022800090918206542F582319F05081952B03C04A
:102290005081909595239083E0917C06F0917D0686
:1022A000508190918306952B90834695215031095A
:1022B000C9F60895CF93C82F809174068F3F59F1C6
:1022C000E0917E06F0917F06808190918406982BA4
:1022D0009083E0918006F09181062081909185069F
:1022E000909592239083E0917E06F0917F06208165
:1022F000909184069095922390838C2F0E942411B4
:10230000E0917E06F0917F06908180918406892B72
:102310008083CF9108958091720691E09093290671
:102320008093860610922A0610924B0660E08CE499
:1023300096E00E94330C6C2F8CE496E00E94330CE4
:10234000CF910C94C710EF92FF920F931F93CF93EE
:10235000DF9381E20E945A1180E00E945A118FE7B8
:102360000E945A1182E20E945A1180E00E945A1182
:1023700087E00E945A11809174068F3F79F1E091B5
:102380007E06F0917F06908180918406892B808360
:10239000E0918006F0918106908180918506892BDD
:1023A0008083E0917E06F0917F0690818091840683
:1023B000809589238083C4E1D1E089910E94241112
:1023C00085E0C431D807C9F7E0917E06F0917F0619
:1023D000908180918406892B808330C0F090B80072
:1023E0008CE08093B800C4E1D1E0EE24E3948091C6
:1023F0007206E09229068093860610922A061092B1
:102400004B0660E48CE496E00E94330C00E010E0A0
:10241000FE01E00FF11F60818CE496E00E94330C16
:102420000F5F1F4F0031110599F70E94C71060968A
:1024300085E0C431D807D9F6F092B800DF91CF918A
:102440001F910F91FF90EF900895CF93DF93FC01C0
:10245000448155816081718188E596E00E942B104E
:10246000EC0142E050E06FE675E088E596E00E94FE
:102470002B108C0F9D1FDF91CF910895CF93DF9389
:10248000EEE0F8E08491EAEFF7E0D491E6EEF7E0D1
:10249000C491CC2391F081110E94620CEC2FF0E0EA
:1024A000EE0FFF1FE652F84FA591B491EC91ED238A
:1024B00081E090E021F480E002C080E090E0DF91D4
:1024C000CF9108955F926F927F928F929F92AF9279
:1024D000BF92CF92DF92EF92FF920F931F93CF9311
:1024E000DF934C016B015A01C0E0D0E000E010E046
:1024F00035016C0E7D1E7E01EC0CFD1C01151105D5
:1025000011F0550C02C0F301549057FE10C0E09139
:102510005806F09159060480F581E02D21E030E065
:10252000A701B801680D791D88E596E009950F5F50
:102530001F4F0830110511F72196C830D105B1F6AB
:10254000DF91CF911F910F91FF90EF90DF90CF908F
:10255000BF90AF909F908F907F906F905F90089505
:10256000CF93DF93CDB7DEB728970FB6F894DEBFD1
:102570000FBECDBF789484B5826084BD84B5816080
:1025800084BD85B5826085BD85B5816085BD80913E
:102590006E00816080936E001092810080918100B6
:1025A00082608093810080918100816080938100AE
:1025B000809180008160809380008091B100846070
:1025C0008093B1008091B00081608093B0008091D1
:1025D0007A00846080937A0080917A008260809390
:1025E0007A0080917A00816080937A0080917A00ED
:1025F000806880937A001092C10062E082E00E94BD
:10260000BB0C82E0809373068CE38093720680910A
:1026100074068F3F09F4BDC061E0809176060E9488
:10262000BB0C61E0809178060E94BB0C809178061B
:10263000082E000C990BFC01EC51F84FE491F0E0EE
:10264000EE0FFF1FE055F84F2591349130937F0630
:1026500020937E06FC01E850F84FE491E093840655
:1026600080917606082E000C990BFC01EC51F84F76
:10267000E491F0E0EE0FFF1FE055F84F2591349103
:102680003093810620938006FC01E850F84FE491D6
:10269000E09385068091790681113EC061E08091CA
:1026A00074060E94BB0C61E0809175060E94BB0C11
:1026B00080917506082E000C990BFC01EC51F84F27
:1026C000E491F0E0EE0FFF1FE055F84F25913491B3
:1026D00030937D0620937C06FC01E850F84FE4918E
:1026E000E093830680917406082E000C990BFC0180
:1026F000EC51F84FE491F0E0EE0FFF1FE055F84F7A
:102700002591349130937B0620937A06FC01E850A2
:10271000F84FE491E093820680917906882309F4CA
:102720005FC01FB7F8948091FA05811127C0EEEEC3
:10273000F7E08491E2E0F8E09491E82FF0E0EE0F0A
:10274000FF1FEA55F84FA591B491EC91E92321F4CC
:1027500061E08AE00E948B0C61E08AE00E94BB0C81
:102760008CB580618CBD8CB580648CBD61E08DE0E2
:102770000E94BB0C61E08BE00E94BB0C8091FA05CB
:102780008F5F8093FA051FBF80E58CBD81E08DBD12
:1027900027C01092C3051092C20510922A0610920B
:1027A0004B061092280681E08093270610920206BD
:1027B00061E082E10E948B0C61E083E10E948B0C5E
:1027C0008091B9008E7F8093B9008091B9008D7F90
:1027D0008093B90088E48093B80085E48093BC00BE
:1027E0008091770687FD1EC061E00E94BB0C61E00E
:1027F000809177060E948B0C61E070E080E090E0B1
:102800000E940E0D60E0809177060E948B0C6AE0BA
:1028100070E080E090E00E940E0D61E0809177060C
:102820000E948B0C8EEA0E945A1185ED0E945A116B
:1028300080E80E945A1188EA0E945A118FE30E9490
:102840005A1183ED0E945A1180E00E945A1180E4CF
:102850000E945A118DE80E945A1184E10E945A1177
:1028600080E20E945A1180E00E945A1181EA0E947F
:102870005A1188EC0E945A118AED0E945A1182E185
:102880000E945A1181E80E945A118FEC0E945A113D
:1028900089ED0E945A1181EF0E945A118BED0E941E
:1028A0005A1180E40E945A1184EA0E945A1186EA61
:1028B0000E945A118EE20E945A118FEA0E945A1108
:1028C0000E94A31168EE73E080E090E00E940E0D7C
:1028D0000E943E12892B29F060E170E080E090E0D8
:1028E000F5CF809101060E94310FCC24C394D12CE6
:1028F00094E6892E912C66246394712C37E0232E64
:10290000312CAA24AA94BA2C80E090E040E050E058
:10291000FC01EA52FA4F20812223B9F05F5F628105
:10292000718120E030E0F901EC53FA4FA081AA2335
:1029300039F0A181A71304C0E281E61709F43CC273
:102940002D5F3F4F2231310571F705968E3191058C
:10295000F9F6451352C00E94E40E809101068F5F84
:10296000809301068A3029F0809101060E94310F80
:1029700044C00E94E40E10920106EE24E394F12C70
:1029800000E210E020E830E040E150E060E070E07C
:1029900088E596E00E94500A82E080936C061092CF
:1029A0006B0610926A0610926906109268063092C1
:1029B00065062092640629E130E030936706209393
:1029C000660664E675E0CE0101960E94B210CE0163
:1029D00001960E94251289819A810E94DE170E9429
:1029E000A3110E943E12892B09F4BECF60E170E072
:1029F00080E090E00E940E0DF4CF81E00E94F70C81
:102A00009250B4010E941B178B017093FE056093D6
:102A1000FD0580E00E94F70CE0E0F2E0E81BF90B16
:102A2000CF01B4010E941B177093FC056093FB0556
:102A30002091F8053091F905232B09F0A1C02091D0
:102A4000F6053091F705232B09F09AC010161106F0
:102A50002CF47092F9056092F80515C0012B29F04D
:102A6000B092F905A092F8050EC0161617062CF4C0
:102A70007092F7056092F60506C0672B21F0B092C0
:102A8000F705A092F6055090F605209110013091BF
:102A9000110137FF02C0295F3F4FB3E035952795FD
:102AA000BA95E1F7F52CF20E4090F805E09112018D
:102AB000F0911301F7FD3796A3E0F595E795AA95F8
:102AC000E1F7E42CEE0E6F2D8E2D0E94C00E87FDD7
:102AD00037C0F5E08F02800111240A521A4FF80125
:102AE0003281350D4181440D632F842F3F83488708
:102AF0000E94C00E3F81488587FF22C0E42FF0E08E
:102B0000E050FF4F6081E62FF0E0B601032E02C0D7
:102B1000660F771F0A94E2F76E237F237093F50503
:102B20006093F405672B61F4F8014183328388EFE9
:102B3000489E202D11242383589E902D1124948388
:102B40006F2D8E2D0E94C00E87FD09C01092F905D1
:102B50001092F8051092F7051092F60511C0EE2DAF
:102B6000F0E0E050FF4F8081282F30E0C60102C026
:102B7000880F991FFA94E2F782239323892B31F768
:102B8000E4E1F1E020E034E0119221503040E1F73F
:102B900010920006809100068031C0F51092FF056A
:102BA0003091FF0580910006383060F590E0FC011F
:102BB000E050FF4F2081422F50E0632F70E0F6017C
:102BC00002C0EE0FFF1F3A95E2F79F012423352341
:102BD0003093F5052093F405232B71F033E0660F55
:102BE000771F3A95E1F74AEB57E0E3E0880F991F2A
:102BF000EA95E1F70E9462128091FF058F5F809352
:102C0000FF05CECF8F5F80930006C4CF1092F505ED
:102C10001092F40515E08091F4059091F505863049
:102C200091050CF079C0189FF001199FF00D112447
:102C3000EA52FA4F2081222309F448C02381121658
:102C400014F421502383189FF001199FF00D1124D3
:102C5000EA52FA4F238127FF02C02F5F2383189F78
:102C6000F001199FF00D1124EA52FA4F2481121637
:102C700014F421502483189FF001199FF00D1124A2
:102C8000EA52FA4F248127FF02C02F5F2483189F46
:102C9000F001199FF00D1124EA52FA4F828121812F
:102CA0006481062E000C770B38E0839F600D711D48
:102CB00011248381082E000C990B4AEC57E0E8E0C0
:102CC0002E9F800D911D11240E946212E091F40547
:102CD000F091F505CF01880F991FE80FF91FEC530C
:102CE000FA4F8081882371F062818181F8E06F9FC3
:102CF000B001112442EC57E028E0829FC00111246A
:102D00000E9462128091F4059091F50501969093CE
:102D1000F5058093F4057FCF2091F8053091F905F2
:102D20002115310591F08091120190911301820FCC
:102D3000931F909313018093120187709927892B19
:102D400021F41092F9051092F8052091F6053091C2
:102D5000F7052115310591F0809110019091110135
:102D6000820F931F90931101809310018770992710
:102D7000892B21F41092F7051092F605609110014D
:102D80007091110142ED57E0809112019091130171
:102D90000E9462120E943E12892B21F4809101064A
:102DA0000E94310F0E94A31180E090E0892B09F46A
:102DB000ABCD0E940000A5CD4F5FC7CDECE4F6E09F
:102DC0001382128288EE93E0A0E0B0E084839583C2
:102DD000A683B7838EE295E091838083E8E5F6E0F1
:102DE0001382128220E830E03583248380E490E06F
:102DF000978386833187208793878287158A1586F4
:102E000014861786168681E0848B2FEF3FEF338B75
:102E1000228B318B208B868B178A118E108E8EE33E
:102E200095E0918380838FEF848F80A3868F858F39
:102E300084E0878F089597FB072E16F4009407D03F
:102E400077FD09D00E942F1707FC05D03EF490951E
:102E500081959F4F0895709561957F4F0895AA1BA6
:102E6000BB1B51E107C0AA1FBB1FA617B70710F075
:102E7000A61BB70B881F991F5A95A9F780959095A7
:102E8000BC01CD010895EE0FFF1F0590F491E02DD8
:102E90000994CF93DF938230910510F482E090E0A3
:102EA000E0918906F0918A0620E030E0C0E0D0E0B1
:102EB000309711F14081518148175907C0F04817E8
:102EC000590761F482819381209719F09B838A834B
:102ED0002BC090938A068093890626C02115310560
:102EE00019F04217530718F49A01BE01DF01EF01F0
:102EF0000280F381E02DDCCF2115310509F1281B7B
:102F0000390B2430310590F412968D919C911397D2
:102F10006115710521F0FB019383828304C09093B6
:102F20008A0680938906FD01329644C0FD01E20FB6
:102F3000F31F81939193225031092D933C933AC012
:102F40002091870630918806232B41F420911605A5
:102F50003091170530938806209387062091140539
:102F6000309115052115310541F42DB73EB740913B
:102F7000180550911905241B350BE0918706F09137
:102F80008806E217F307A0F42E1B3F0B281739071A
:102F900078F0AC014E5F5F4F2417350748F04E0FB5
:102FA0005F1F50938806409387068193919302C0D8
:102FB000E0E0F0E0CF01DF91CF9108950F931F93F0
:102FC000CF93DF93009709F48CC0FC0132971382F2
:102FD00012820091890610918A060115110581F46B
:102FE00020813181820F931F2091870630918806BE
:102FF0002817390779F5F0938806E093870671C0A2
:10300000D80140E050E0AE17BF0750F412962D9162
:103010003C911397AD012115310509F1D901F3CF89
:103020009D01DA013383228360817181860F971FAE
:103030008217930769F4EC0128813981260F371F25
:103040002E5F3F4F318320838A819B8193838283CC
:10305000452B29F4F0938A06E093890642C0139623
:10306000FC93EE931297ED01499159919E01240F23
:10307000351FE217F30771F480819181840F951F4A
:10308000029611969C938E938281938113969C93C2
:103090008E931297E0E0F0E0D80112968D919C910A
:1030A0001397009719F0F8018C01F6CF8D919C9140
:1030B00098012E5F3F4F820F931F2091870630911A
:1030C00088062817390769F4309729F410928A0680
:1030D0001092890602C01382128210938806009310
:1030E0008706DF91CF911F910F910895A0E0B0E086
:1030F000ECE7F8E10C949719EC01009721F4CB016F
:103100000E944917B8C0FC01E60FF71F9C0122502E
:103110003109E217F30708F4ACC0D9010D911C91F5
:10312000119706171707B0F00530110508F49FC076
:10313000C80104978617970708F499C0025011092F
:10314000061B170B019311936D937C93CF010E9483
:10315000DE178DC05B01A01AB10A4C01800E911ED2
:10316000A0918906B0918A0640E050E0E12CF12C54
:10317000109709F44AC0A815B905D1F56D907C9057
:103180001197630182E0C80ED11CCA14DB0480F1E0
:10319000A3014A195B096A0182E0C80ED11C12968C
:1031A000BC9012971396AC91B5E0CB16D10440F0C9
:1031B000B282A38351834083D9016D937C930AC06B
:1031C0000E5F1F4FC301800F911FF9019183808310
:1031D000EB2DFA2FE114F10431F0D7011396FC9393
:1031E000EE93129744C0F0938A06E09389063FC09D
:1031F0008D919C9111974817590708F4AC017D01F6
:1032000012960D90BC91A02DB3CF8091870690911E
:10321000880688159905E1F446175707C8F4809188
:10322000140590911505009741F48DB79EB7409114
:10323000180550911905841B950BE817F907C8F478
:10324000F0938806E0938706F901718360830FC0CD
:10325000CB010E9449177C01009759F0A801BE01DB
:103260000E944519CE010E94DE17C70104C0CE019D
:1032700002C080E090E0CDB7DEB7EEE00C94B31969
:1032800081E090E0F8940C94CA19FB01DC0102C0C3
:1032900001900D9241505040D8F70895FB01DC0198
:1032A00001900D920020E1F70895FB01DC0102C0BE
:1032B00005900D9241505040D8F70895BB274A30F1
:1032C00031F4992322F4BDE2909581959F4F0C949F
:1032D0006A19BB27FB015527AA27880F991FAA1F28
:1032E000A41710F0A41B83955051B9F7A05DAA3321
:1032F00008F0A95DA193009779F7B111B1931192EC
:10330000CB010C948319DC01FC01672F71917723A9
:10331000E1F7329704C07C916D9370836291AE1790
:10332000BF07C8F308952F923F924F925F926F921A
:103330007F928F929F92AF92BF92CF92DF92EF9245
:10334000FF920F931F93CF93DF93CDB7DEB7CA1BC6
:10335000DB0B0FB6F894DEBF0FBECDBF09942A88F1
:10336000398848885F846E847D848C849B84AA8499
:10337000B984C884DF80EE80FD800C811B81AA8126
:10338000B981CE0FD11D0FB6F894DEBF0FBECDBFF1
:08339000ED010895F894FFCF50
:10339800000000003EE28BA185D1477C00000000C0
:1033A80008000800FFFFFFFFFFFFFFFFFFFFFFFF11
:1033B800FFFFFFFFFFFFFFFFFFFFFFFFFF7F7F7F95
:1033C8007F7F7FFFFFFFFFFFFF7F7F7F7F7F7FFF85
:1033D800FFFFFF7F7FFFFFFFFFFFFF7F7FFFFFFFF5
:1033E800FF7F7F7F7F7F7FFFFFFFFF7F7F7F7F7F65
:1033F8007F7F7FFFFFFFFFFFFF7F7F7F7F7F7FFF55
:10340800FFFFFF7F7FFFFFFFFFFFFF7F7FFFFFFFC4
:10341800FFFFFFFFFFFFFFFFFFFFFFFFFFFFFFFFB4
:10342800FFFFFFFFFFFFFFFFFFFFFFFFFFFFFFFFA4
:10343800FFFFFFFFFFFFFFFFFFFFFF0100FCFEFE96
:10344800FEFEFCF8F9FFFF0100FCFEFEFEFEFC009C
:1034580001FFFF0000FFFFFFFFFFFF0000FFFF016C
:1034680000FCFEFEFEFEFC0001FFFF0000FEFEFE6B
:10347800FEFEFC0001FFFF0100FCFEFEFEFEFC005C
:1034880001FFFF0000FFFFFFFFFFFF0000FFFFFF3E
:10349800FFFFFFFFFFFFFFFFFFFFFFFFFFFFFFFF34
:1034A800FFFFFFFFFFFFFFFFFFFFFFFFFFFFFFFF24
:1034B800FFFFFFFFFFFFFFFFFFFFFFC0801F3F3F32
:1034C8003F3F3F7FFFFFFF0000FFFFFFFFFFFF00C1
:1034D80000FFFF00003F3F3F3F1F0FC0E0FFFF001E
:1034E80000FFFFFFFFFFFF0000FFFF00003F3F3F1F
:1034F8003F1F0FC0E0FFFF00003F3F3F3F3F3F003F
:1035080000FFFF00003F7FFFFFFFFF0000FFFFFFFE
:10351800FFFFFFFFFFFFFFFFFFFFFFFFFFFFFFFFB3
:10352800FFFFFFFFFFFFFFFFFFFFFFFFFFFFFFFFA3
:10353800FFFFFFFFFFFFFFFFFFFFFFFFFFFFFFFF93
:10354800FFFFFE0000FFFF0000FFFFFFFFFFFF007F
:1035580000FFFF0000FFFFFFFFFEFC0001FFFF0070
:1035680000FFFFFFFFFFFF0000FFFF0000FFFFFF5E
:10357800FFFEFC0001FFFF0000FFFFFFFFFFFF0051
:1035880000FFFF0000FEFCF8F1E3C70000FFFFFFAB
:10359800FFFFFFFFFFFFFFFFFFFFFFFFFFFFFFFF33
:1035A800FFFFFFFFFFFFFFFFFFFFFFFFFFFFFFFF23
:1035B800FFFFFFFFFFFFFFFFFFFFFFFCF8F1F3F343
:1035C800F3F3F1F8FCFFFFFCF8F1F3F3F3F3F1F890
:1035D800FCFFFFF0F0FFFFFFFFFFFFF0F0FFFFFC35
:1035E800F8F1F3F3F3F3F1F8FCFFFFF0F0F3F3F382
:1035F800F3F3F1F8FCFFFFF0F0FFFFFFFFFFFFF030
:10360800F0FFFFF0F0FFFFFFFFFFFFF0F0FFFFFF0D
:10361800FFFFFFFFFFFFFFFFFFFFFFFFFFFFFFFFB2
:10362800FFFFFFFF0707E7E76767676767E7C7C742
:10363800870707070707070707C7E7C70707070732
:1036480007070707E7E767676767676767E7C78782
:1036580007070707E7E707070707070787C7E767B2
:103668000707070707070707E7E7870707070707A2
:10367800070787E7E7070787C7E76767676767E7B2
:10368800C78707070707E7E767676767676767E742
:10369800C78707070707E7E707070707070787C772
:1036A800E76707070000FFFF0000000000000003B5
:1036B800FFFE00000000E0FC3F0701073FFCE000C0
:1036C80000000000FFFF0000000070F0F0381F0F3E
:1036D80000000000FFFFE070381C7EF7C301000007
:1036E80000000000000000000003070606060606AA
:1036F800E6FE3F070000FFFF010000000000000099
:1037080001FFFF000000FFFF0000000070F0F0382C
:103718001F0F00000000FFFFE070381C7EF7C30198
:103728000000000000003F3F303030303038181EB5
:103738000F030000383F0F010000000000010F3F99
:10374800380000003F3F000000000001071F3C3028
:10375800000000003F3F000000000001071F3C3050
:1037680000000000000000000000000000303C1FC6
:10377800070100000000070F1C38303030303038A7
:103788001C0F070000003F3F000000000001071F5A
:103798003C30000000003F3F000000000001071F10
:1037A8003C30000000008B068000000103070F1F5B
:1037B8003F7F0080C0E0F0F8FCFE00000000330C02
:1037C800030CFB0BEC0BDE0BDD0B000000005B09B0
:1037D8002B101607010B6004BA05B20A500A320A08
:1037E800B40757454C4C20444F4E4521004C455694
:1037F800454C200047414D45204F56455221000D6C
:023808000A00B4
:107800000C94343C0C94513C0C94513C0C94513CE1
:107810000C94513C0C94513C0C94513C0C94513CB4
:107820000C94513C0C94513C0C94513C0C94513CA4
:107830000C94513C0C94513C0C94513C0C94513C94
:107840000C94513C0C94513C0C94513C0C94513C84
:107850000C94513C0C94513C0C94513C0C94513C74
:107860000C94513C0C94513C11241FBECFEFD8E036
:10787000DEBFCDBF11E0A0E0B1E0ECE9FFE702C060
:1078800005900D92A230B107D9F712E0A2E0B1E065
:1078900001C01D92AD30B107E1F70E942D3D0C945F
:1078A000CC3F0C94003C982F959595959595959582
:1078B000905D8F708A307CF0282F295A8091C0000B
:1078C00085FFFCCF9093C6008091C00085FFFCCF60
:1078D0002093C6000895282F205DF0CF982F809127
:1078E000C00085FFFCCF9093C6000895EF92FF92F1
:1078F0000F931F93EE24FF2487018091C00087FD22
:1079000017C00894E11CF11C011D111D81E4E8164B
:1079100082E4F8068FE0080780E0180770F3E09132
:107920000401F091050109958091C00087FFE9CF1E
:107930008091C6001F910F91FF90EF9008950E94D3
:10794000763C982F8091C00085FFFCCF9093C600B5
:1079500091362CF490330CF09053892F089597555D
:10796000892F08951F930E949F3C182F0E949F3CCF
:107970001295107F810F1F9108951F93182F882350
:1079800021F00E94763C1150E1F71F9108951F935A
:10799000182F0E94763C803249F0809103018F5F5E
:1079A000809303018530C1F01F9108958091C0003C
:1079B00085FFFCCF84E18093C6008091C00085FFE5
:1079C000FCCF1093C6008091C00085FFFCCF80E102
:1079D0008093C6001F910895E0910401F091050184
:1079E00009951F9108950E94763C803241F0809164
:1079F00003018F5F80930301853081F008958091AA
:107A0000C00085FFFCCF84E18093C6008091C00058
:107A100085FFFCCF80E18093C6000895E0910401CA
:107A2000F09105010995089540E951E08823A1F0FE
:107A30002D9A28EE33E0FA013197F1F721503040CA
:107A4000D1F72D9828EE33E0FA013197F1F7215064
:107A50003040D1F7815061F708953F924F925F9285
:107A60006F927F928F929F92AF92BF92CF92DF924E
:107A7000EF92FF920F931F93CF93DF93000080E16B
:107A80008093C4001092C50088E18093C10086E015
:107A90008093C2005098589A259A81E00E94143D24
:107AA00024E1F22E9EE1E92E85E9D82E0FE0C02ECA
:107AB00010E1B12EAA24A394B1E49B2EA6E58A2E50
:107AC000F2E57F2EE0E26E2E79E4572E63E5462E36
:107AD00050E5352E0E94763C8033B1F18133B9F107
:107AE000803409F46FC0813409F476C0823409F41B
:107AF00085C0853409F488C0803531F1823521F1A3
:107B0000813511F1853509F485C0863509F48DC0BC
:107B1000843609F496C0843709F403C1853709F423
:107B200072C1863709F466C0809103018F5F80932C
:107B30000301853079F6E0910401F0910501099582
:107B40000E94763C803351F60E94F33CC3CF0E94E2
:107B5000763C803249F78091C00085FFFCCFF092DF
:107B6000C6008091C00085FFFCCF9092C600809136
:107B7000C00085FFFCCF8092C6008091C00085FFC9
:107B8000FCCF7092C6008091C00085FFFCCF609250
:107B9000C6008091C00085FFFCCF5092C600809146
:107BA000C00085FFFCCF4092C6008091C00085FFD9
:107BB000FCCF3092C6008091C00085FFFCCFB09210
:107BC000C60088CF0E94763C863808F4BDCF0E945C
:107BD000763C0E94F33C7ECF0E94763C803809F4CC
:107BE0009CC0813809F40BC1823809F43CC1883942
:107BF00009F48FC080E00E94C73C6CCF84E10E94F2
:107C0000BD3C0E94F33C66CF85E00E94BD3C0E94D3
:107C1000F33C60CF0E94763C809306010E94763C44
:107C2000809307010E94F33C55CF0E94763C80333D
:107C300009F41DC183E00E94BD3C80E00E94C73C66
:107C400049CF0E94763C809309020E94763C809343
:107C5000080280910C028E7F80930C020E94763C79
:107C6000853409F415C18091080290910902892B8D
:107C700089F000E010E00E94763CF801E85FFE4FDA
:107C800080830F5F1F4F80910802909109020817AF
:107C9000190788F30E94763C803209F045CF809125
:107CA0000C0280FF01C16091060170910701660F0F
:107CB000771F7093070160930601A0910802B091AD
:107CC00009021097C9F0E8E0F1E09B01AD014E0F09
:107CD0005F1FF999FECF32BD21BD819180BDFA9A17
:107CE000F99A2F5F3F4FE417F50799F76A0F7B1F4B
:107CF00070930701609306018091C00085FFFCCF5F
:107D0000F092C6008091C00085FFFCCFB092C60003
:107D1000E1CE83E00E94C73CDDCE82E00E94C73CFA
:107D2000D9CE0E94763C809309020E94763C8093D3
:107D300008028091060190910701880F991F909386
:107D40000701809306010E94763C853409F4A6C0A1
:107D500080910C028E7F80930C020E94763C8032D0
:107D600009F0B8CE8091C00085FFFCCFF092C6002C
:107D7000609108027091090261157105B9F140E046
:107D800050E080910C02A82FA170B82FB27011C0E2
:107D9000BB2309F45CC0E0910601F0910701319624
:107DA000F0930701E09306014F5F5F4F46175707B7
:107DB000E8F4AA2369F3F999FECF209106013091E6
:107DC000070132BD21BDF89A90B58091C00085FFB2
:107DD000FCCF9093C6002F5F3F4F30930701209355
:107DE00006014F5F5F4F4617570718F38091C00099
:107DF00085FDE5CE8091C00085FFF8CFE0CE81E023
:107E00000E94C73C67CE0E94763C803209F08CCE3F
:107E10008091C00085FFFCCFF092C6008091C00029
:107E200085FFFCCFE092C6008091C00085FFFCCFAB
:107E3000D092C6008091C00085FFFCCFC092C600E2
:107E40008091C00085FFFCCFB092C60043CEE09188
:107E50000601F091070194918091C00085FFFCCF4D
:107E60009093C6009CCF80E10E94C73C33CE0E9415
:107E7000763C0E94763C182F0E94763C112309F430
:107E800083C0113009F484C08FE00E94C73C22CE29
:107E900080910C02816080930C02E5CE80910C02EF
:107EA000816080930C0259CF809107018823880F4D
:107EB000880B8A2180930B02809106019091070123
:107EC000880F991F90930701809306018091080203
:107ED00080FF09C080910802909109020196909359
:107EE000090280930802F894F999FECF1127E091D6
:107EF0000601F0910701C8E0D1E08091080290915D
:107F00000902103091F40091570001700130D9F34B
:107F100003E000935700E89500915700017001308D
:107F2000D9F301E100935700E89509901990009169
:107F3000570001700130D9F301E000935700E89534
:107F40001395103498F011270091570001700130FB
:107F5000D9F305E000935700E895009157000170B0
:107F60000130D9F301E100935700E895329602976A
:107F700009F0C7CF103011F00296E5CF112480919F
:107F8000C00085FFB9CEBCCE8EE10E94C73CA2CD19
:0C7F900085E90E94C73C9ECDF894FFCF0D
:027F9C00800063
:040000030000780081
:00000001FF
